{
  "_format": "hh-sol-artifact-1",
  "contractName": "MusicNFTMarketplace",
  "sourceName": "src/backend/contracts/MusicNFTMarketplace.sol",
  "abi": [
    {
      "inputs": [
        {
          "internalType": "uint256",
          "name": "_royaltyFee",
          "type": "uint256"
        },
        {
          "internalType": "address",
          "name": "_artist",
          "type": "address"
        },
        {
          "internalType": "uint256[]",
          "name": "_prices",
          "type": "uint256[]"
        },
        {
          "internalType": "uint256",
          "name": "_mintingFee",
          "type": "uint256"
        }
      ],
      "stateMutability": "payable",
      "type": "constructor"
    },
    {
      "anonymous": false,
      "inputs": [
        {
          "indexed": true,
          "internalType": "address",
          "name": "owner",
          "type": "address"
        },
        {
          "indexed": true,
          "internalType": "address",
          "name": "approved",
          "type": "address"
        },
        {
          "indexed": true,
          "internalType": "uint256",
          "name": "tokenId",
          "type": "uint256"
        }
      ],
      "name": "Approval",
      "type": "event"
    },
    {
      "anonymous": false,
      "inputs": [
        {
          "indexed": true,
          "internalType": "address",
          "name": "owner",
          "type": "address"
        },
        {
          "indexed": true,
          "internalType": "address",
          "name": "operator",
          "type": "address"
        },
        {
          "indexed": false,
          "internalType": "bool",
          "name": "approved",
          "type": "bool"
        }
      ],
      "name": "ApprovalForAll",
      "type": "event"
    },
    {
      "anonymous": false,
      "inputs": [
        {
          "indexed": true,
          "internalType": "uint256",
          "name": "tokenId",
          "type": "uint256"
        },
        {
          "indexed": true,
          "internalType": "address",
          "name": "seller",
          "type": "address"
        },
        {
          "indexed": false,
          "internalType": "address",
          "name": "buyer",
          "type": "address"
        },
        {
          "indexed": false,
          "internalType": "uint256",
          "name": "price",
          "type": "uint256"
        }
      ],
      "name": "MarketItemBought",
      "type": "event"
    },
    {
      "anonymous": false,
      "inputs": [
        {
          "indexed": true,
          "internalType": "uint256",
          "name": "tokenId",
          "type": "uint256"
        },
        {
          "indexed": true,
          "internalType": "address",
          "name": "seller",
          "type": "address"
        },
        {
          "indexed": false,
          "internalType": "uint256",
          "name": "price",
          "type": "uint256"
        }
      ],
      "name": "MarketItemRelisted",
      "type": "event"
    },
    {
      "anonymous": false,
      "inputs": [
        {
          "indexed": true,
          "internalType": "uint256",
          "name": "tokenId",
          "type": "uint256"
        },
        {
          "indexed": true,
          "internalType": "address",
          "name": "minter",
          "type": "address"
        },
        {
          "indexed": false,
          "internalType": "string",
          "name": "data",
          "type": "string"
        }
      ],
      "name": "NFTMinted",
      "type": "event"
    },
    {
      "anonymous": false,
      "inputs": [
        {
          "indexed": true,
          "internalType": "address",
          "name": "previousOwner",
          "type": "address"
        },
        {
          "indexed": true,
          "internalType": "address",
          "name": "newOwner",
          "type": "address"
        }
      ],
      "name": "OwnershipTransferred",
      "type": "event"
    },
    {
      "anonymous": false,
      "inputs": [
        {
          "indexed": true,
          "internalType": "address",
          "name": "from",
          "type": "address"
        },
        {
          "indexed": true,
          "internalType": "address",
          "name": "to",
          "type": "address"
        },
        {
          "indexed": true,
          "internalType": "uint256",
          "name": "tokenId",
          "type": "uint256"
        }
      ],
      "name": "Transfer",
      "type": "event"
    },
    {
      "inputs": [
        {
          "internalType": "address",
          "name": "to",
          "type": "address"
        },
        {
          "internalType": "uint256",
          "name": "tokenId",
          "type": "uint256"
        }
      ],
      "name": "approve",
      "outputs": [],
      "stateMutability": "nonpayable",
      "type": "function"
    },
    {
      "inputs": [],
      "name": "artist",
      "outputs": [
        {
          "internalType": "address",
          "name": "",
          "type": "address"
        }
      ],
      "stateMutability": "view",
      "type": "function"
    },
    {
      "inputs": [
        {
          "internalType": "address",
          "name": "owner",
          "type": "address"
        }
      ],
      "name": "balanceOf",
      "outputs": [
        {
          "internalType": "uint256",
          "name": "",
          "type": "uint256"
        }
      ],
      "stateMutability": "view",
      "type": "function"
    },
    {
      "inputs": [],
      "name": "baseExtension",
      "outputs": [
        {
          "internalType": "string",
          "name": "",
          "type": "string"
        }
      ],
      "stateMutability": "view",
      "type": "function"
    },
    {
      "inputs": [],
      "name": "baseURI",
      "outputs": [
        {
          "internalType": "string",
          "name": "",
          "type": "string"
        }
      ],
      "stateMutability": "view",
      "type": "function"
    },
    {
      "inputs": [
        {
          "internalType": "uint256",
          "name": "_tokenId",
          "type": "uint256"
        }
      ],
      "name": "buyToken",
      "outputs": [],
      "stateMutability": "payable",
      "type": "function"
    },
    {
      "inputs": [],
      "name": "getAllUnsoldTokens",
      "outputs": [
        {
          "components": [
            {
              "internalType": "uint256",
              "name": "tokenId",
              "type": "uint256"
            },
            {
              "internalType": "address payable",
              "name": "seller",
              "type": "address"
            },
            {
              "internalType": "uint256",
              "name": "price",
              "type": "uint256"
            },
            {
              "internalType": "address",
              "name": "owner",
              "type": "address"
            }
          ],
          "internalType": "struct MusicNFTMarketplace.MarketItem[]",
          "name": "",
          "type": "tuple[]"
        }
      ],
      "stateMutability": "view",
      "type": "function"
    },
    {
      "inputs": [
        {
          "internalType": "uint256",
          "name": "tokenId",
          "type": "uint256"
        }
      ],
      "name": "getApproved",
      "outputs": [
        {
          "internalType": "address",
          "name": "",
          "type": "address"
        }
      ],
      "stateMutability": "view",
      "type": "function"
    },
    {
      "inputs": [],
      "name": "getMyTokens",
      "outputs": [
        {
          "components": [
            {
              "internalType": "uint256",
              "name": "tokenId",
              "type": "uint256"
            },
            {
              "internalType": "address payable",
              "name": "seller",
              "type": "address"
            },
            {
              "internalType": "uint256",
              "name": "price",
              "type": "uint256"
            },
            {
              "internalType": "address",
              "name": "owner",
              "type": "address"
            }
          ],
          "internalType": "struct MusicNFTMarketplace.MarketItem[]",
          "name": "",
          "type": "tuple[]"
        }
      ],
      "stateMutability": "view",
      "type": "function"
    },
    {
      "inputs": [],
      "name": "getTotalSupply",
      "outputs": [
        {
          "internalType": "uint256",
          "name": "",
          "type": "uint256"
        }
      ],
      "stateMutability": "view",
      "type": "function"
    },
    {
      "inputs": [
        {
          "internalType": "address",
          "name": "owner",
          "type": "address"
        },
        {
          "internalType": "address",
          "name": "operator",
          "type": "address"
        }
      ],
      "name": "isApprovedForAll",
      "outputs": [
        {
          "internalType": "bool",
          "name": "",
          "type": "bool"
        }
      ],
      "stateMutability": "view",
      "type": "function"
    },
    {
      "inputs": [
        {
          "internalType": "uint256",
          "name": "",
          "type": "uint256"
        }
      ],
      "name": "marketItems",
      "outputs": [
        {
          "internalType": "uint256",
          "name": "tokenId",
          "type": "uint256"
        },
        {
          "internalType": "address payable",
          "name": "seller",
          "type": "address"
        },
        {
          "internalType": "uint256",
          "name": "price",
          "type": "uint256"
        },
        {
          "internalType": "address",
          "name": "owner",
          "type": "address"
        }
      ],
      "stateMutability": "view",
      "type": "function"
    },
    {
      "inputs": [
        {
          "internalType": "string",
          "name": "_data",
          "type": "string"
        },
        {
          "internalType": "uint256",
          "name": "_price",
          "type": "uint256"
        }
      ],
      "name": "mintNFT",
      "outputs": [],
      "stateMutability": "payable",
      "type": "function"
    },
    {
      "inputs": [],
      "name": "mintingFee",
      "outputs": [
        {
          "internalType": "uint256",
          "name": "",
          "type": "uint256"
        }
      ],
      "stateMutability": "view",
      "type": "function"
    },
    {
      "inputs": [],
      "name": "name",
      "outputs": [
        {
          "internalType": "string",
          "name": "",
          "type": "string"
        }
      ],
      "stateMutability": "view",
      "type": "function"
    },
    {
      "inputs": [
        {
          "internalType": "uint256",
          "name": "",
          "type": "uint256"
        }
      ],
      "name": "nftData",
      "outputs": [
        {
          "internalType": "string",
          "name": "",
          "type": "string"
        }
      ],
      "stateMutability": "view",
      "type": "function"
    },
    {
      "inputs": [],
      "name": "owner",
      "outputs": [
        {
          "internalType": "address",
          "name": "",
          "type": "address"
        }
      ],
      "stateMutability": "view",
      "type": "function"
    },
    {
      "inputs": [
        {
          "internalType": "uint256",
          "name": "tokenId",
          "type": "uint256"
        }
      ],
      "name": "ownerOf",
      "outputs": [
        {
          "internalType": "address",
          "name": "",
          "type": "address"
        }
      ],
      "stateMutability": "view",
      "type": "function"
    },
    {
      "inputs": [],
      "name": "renounceOwnership",
      "outputs": [],
      "stateMutability": "nonpayable",
      "type": "function"
    },
    {
      "inputs": [
        {
          "internalType": "uint256",
          "name": "_tokenId",
          "type": "uint256"
        },
        {
          "internalType": "uint256",
          "name": "_price",
          "type": "uint256"
        }
      ],
      "name": "resellToken",
      "outputs": [],
      "stateMutability": "payable",
      "type": "function"
    },
    {
      "inputs": [],
      "name": "royaltyFee",
      "outputs": [
        {
          "internalType": "uint256",
          "name": "",
          "type": "uint256"
        }
      ],
      "stateMutability": "view",
      "type": "function"
    },
    {
      "inputs": [
        {
          "internalType": "address",
          "name": "from",
          "type": "address"
        },
        {
          "internalType": "address",
          "name": "to",
          "type": "address"
        },
        {
          "internalType": "uint256",
          "name": "tokenId",
          "type": "uint256"
        }
      ],
      "name": "safeTransferFrom",
      "outputs": [],
      "stateMutability": "nonpayable",
      "type": "function"
    },
    {
      "inputs": [
        {
          "internalType": "address",
          "name": "from",
          "type": "address"
        },
        {
          "internalType": "address",
          "name": "to",
          "type": "address"
        },
        {
          "internalType": "uint256",
          "name": "tokenId",
          "type": "uint256"
        },
        {
          "internalType": "bytes",
          "name": "_data",
          "type": "bytes"
        }
      ],
      "name": "safeTransferFrom",
      "outputs": [],
      "stateMutability": "nonpayable",
      "type": "function"
    },
    {
      "inputs": [
        {
          "internalType": "address",
          "name": "operator",
          "type": "address"
        },
        {
          "internalType": "bool",
          "name": "approved",
          "type": "bool"
        }
      ],
      "name": "setApprovalForAll",
      "outputs": [],
      "stateMutability": "nonpayable",
      "type": "function"
    },
    {
      "inputs": [
        {
          "internalType": "bytes4",
          "name": "interfaceId",
          "type": "bytes4"
        }
      ],
      "name": "supportsInterface",
      "outputs": [
        {
          "internalType": "bool",
          "name": "",
          "type": "bool"
        }
      ],
      "stateMutability": "view",
      "type": "function"
    },
    {
      "inputs": [],
      "name": "symbol",
      "outputs": [
        {
          "internalType": "string",
          "name": "",
          "type": "string"
        }
      ],
      "stateMutability": "view",
      "type": "function"
    },
    {
      "inputs": [
        {
          "internalType": "uint256",
          "name": "tokenId",
          "type": "uint256"
        }
      ],
      "name": "tokenURI",
      "outputs": [
        {
          "internalType": "string",
          "name": "",
          "type": "string"
        }
      ],
      "stateMutability": "view",
      "type": "function"
    },
    {
      "inputs": [
        {
          "internalType": "address",
          "name": "from",
          "type": "address"
        },
        {
          "internalType": "address",
          "name": "to",
          "type": "address"
        },
        {
          "internalType": "uint256",
          "name": "tokenId",
          "type": "uint256"
        }
      ],
      "name": "transferFrom",
      "outputs": [],
      "stateMutability": "nonpayable",
      "type": "function"
    },
    {
      "inputs": [
        {
          "internalType": "address",
          "name": "newOwner",
          "type": "address"
        }
      ],
      "name": "transferOwnership",
      "outputs": [],
      "stateMutability": "nonpayable",
      "type": "function"
    },
    {
      "inputs": [
        {
          "internalType": "uint256",
          "name": "_royaltyFee",
          "type": "uint256"
        }
      ],
      "name": "updateRoyaltyFee",
      "outputs": [],
      "stateMutability": "nonpayable",
      "type": "function"
    }
  ],
  "bytecode": "0x60806040526040518060a001604052806064815260200162005599606491396007908051906020019062000035929190620007a0565b506040518060400160405280600581526020017f2e6a736f6e0000000000000000000000000000000000000000000000000000008152506008908051906020019062000083929190620007a0565b50604051620055fd380380620055fd8339818101604052810190620000a9919062000920565b6040518060400160405280600481526020017f4d454c4f000000000000000000000000000000000000000000000000000000008152506040518060400160405280600481526020017f4d4150500000000000000000000000000000000000000000000000000000000081525081600090805190602001906200012d929190620007a0565b50806001908051906020019062000146929190620007a0565b505050620001696200015d6200046260201b60201c565b6200046a60201b60201c565b6000600c819055503484835162000181919062000b8f565b1115620001c5576040517f08c379a0000000000000000000000000000000000000000000000000000000008152600401620001bc9062000a85565b60405180910390fd5b83600a8190555082600960006101000a81548173ffffffffffffffffffffffffffffffffffffffff021916908373ffffffffffffffffffffffffffffffffffffffff16021790555080600b8190555060005b82518160ff16101562000457576000838260ff168151811062000263577f4e487b7100000000000000000000000000000000000000000000000000000000600052603260045260246000fd5b602002602001015111620002ae576040517f08c379a0000000000000000000000000000000000000000000000000000000008152600401620002a59062000aa7565b60405180910390fd5b620002c3308260ff166200053060201b60201c565b600d60405180608001604052808360ff1681526020013373ffffffffffffffffffffffffffffffffffffffff168152602001858460ff168151811062000332577f4e487b7100000000000000000000000000000000000000000000000000000000600052603260045260246000fd5b60200260200101518152602001600073ffffffffffffffffffffffffffffffffffffffff1681525090806001815401808255809150506001900390600052602060002090600402016000909190919091506000820151816000015560208201518160010160006101000a81548173ffffffffffffffffffffffffffffffffffffffff021916908373ffffffffffffffffffffffffffffffffffffffff1602179055506040820151816002015560608201518160030160006101000a81548173ffffffffffffffffffffffffffffffffffffffff021916908373ffffffffffffffffffffffffffffffffffffffff1602179055505050600c60008154809291906200043c9062000ca7565b919050555080806200044e9062000cf5565b91505062000217565b505050505062000ee6565b600033905090565b6000600660009054906101000a900473ffffffffffffffffffffffffffffffffffffffff16905081600660006101000a81548173ffffffffffffffffffffffffffffffffffffffff021916908373ffffffffffffffffffffffffffffffffffffffff1602179055508173ffffffffffffffffffffffffffffffffffffffff168173ffffffffffffffffffffffffffffffffffffffff167f8be0079c531659141344cd1fd0a4f28419497f9722a3daafe3b4186f6b6457e060405160405180910390a35050565b600073ffffffffffffffffffffffffffffffffffffffff168273ffffffffffffffffffffffffffffffffffffffff161415620005a3576040517f08c379a00000000000000000000000000000000000000000000000000000000081526004016200059a9062000a63565b60405180910390fd5b620005b4816200072a60201b60201c565b15620005f7576040517f08c379a0000000000000000000000000000000000000000000000000000000008152600401620005ee9062000a41565b60405180910390fd5b6200060b600083836200079660201b60201c565b6001600360008473ffffffffffffffffffffffffffffffffffffffff1673ffffffffffffffffffffffffffffffffffffffff16815260200190815260200160002060008282546200065d919062000b32565b92505081905550816002600083815260200190815260200160002060006101000a81548173ffffffffffffffffffffffffffffffffffffffff021916908373ffffffffffffffffffffffffffffffffffffffff160217905550808273ffffffffffffffffffffffffffffffffffffffff16600073ffffffffffffffffffffffffffffffffffffffff167fddf252ad1be2c89b69c2b068fc378daa952ba7f163c4a11628f55a4df523b3ef60405160405180910390a462000726600083836200079b60201b60201c565b5050565b60008073ffffffffffffffffffffffffffffffffffffffff166002600084815260200190815260200160002060009054906101000a900473ffffffffffffffffffffffffffffffffffffffff1673ffffffffffffffffffffffffffffffffffffffff1614159050919050565b505050565b505050565b828054620007ae9062000c3b565b90600052602060002090601f016020900481019282620007d257600085556200081e565b82601f10620007ed57805160ff19168380011785556200081e565b828001600101855582156200081e579182015b828111156200081d57825182559160200191906001019062000800565b5b5090506200082d919062000831565b5090565b5b808211156200084c57600081600090555060010162000832565b5090565b600062000867620008618462000af2565b62000ac9565b905080838252602082019050828560208602820111156200088757600080fd5b60005b85811015620008bb5781620008a0888262000909565b8452602084019350602083019250506001810190506200088a565b5050509392505050565b600081519050620008d68162000eb2565b92915050565b600082601f830112620008ee57600080fd5b81516200090084826020860162000850565b91505092915050565b6000815190506200091a8162000ecc565b92915050565b600080600080608085870312156200093757600080fd5b6000620009478782880162000909565b94505060206200095a87828801620008c5565b935050604085015167ffffffffffffffff8111156200097857600080fd5b6200098687828801620008dc565b9250506060620009998782880162000909565b91505092959194509250565b6000620009b4601c8362000b21565b9150620009c18262000dc2565b602082019050919050565b6000620009db60208362000b21565b9150620009e88262000deb565b602082019050919050565b600062000a0260468362000b21565b915062000a0f8262000e14565b606082019050919050565b600062000a29601c8362000b21565b915062000a368262000e89565b602082019050919050565b6000602082019050818103600083015262000a5c81620009a5565b9050919050565b6000602082019050818103600083015262000a7e81620009cc565b9050919050565b6000602082019050818103600083015262000aa081620009f3565b9050919050565b6000602082019050818103600083015262000ac28162000a1a565b9050919050565b600062000ad562000ae8565b905062000ae3828262000c71565b919050565b6000604051905090565b600067ffffffffffffffff82111562000b105762000b0f62000d82565b5b602082029050602081019050919050565b600082825260208201905092915050565b600062000b3f8262000c24565b915062000b4c8362000c24565b9250827fffffffffffffffffffffffffffffffffffffffffffffffffffffffffffffffff0382111562000b845762000b8362000d24565b5b828201905092915050565b600062000b9c8262000c24565b915062000ba98362000c24565b9250817fffffffffffffffffffffffffffffffffffffffffffffffffffffffffffffffff048311821515161562000be55762000be462000d24565b5b828202905092915050565b600062000bfd8262000c04565b9050919050565b600073ffffffffffffffffffffffffffffffffffffffff82169050919050565b6000819050919050565b600060ff82169050919050565b6000600282049050600182168062000c5457607f821691505b6020821081141562000c6b5762000c6a62000d53565b5b50919050565b62000c7c8262000db1565b810181811067ffffffffffffffff8211171562000c9e5762000c9d62000d82565b5b80604052505050565b600062000cb48262000c24565b91507fffffffffffffffffffffffffffffffffffffffffffffffffffffffffffffffff82141562000cea5762000ce962000d24565b5b600182019050919050565b600062000d028262000c2e565b915060ff82141562000d195762000d1862000d24565b5b600182019050919050565b7f4e487b7100000000000000000000000000000000000000000000000000000000600052601160045260246000fd5b7f4e487b7100000000000000000000000000000000000000000000000000000000600052602260045260246000fd5b7f4e487b7100000000000000000000000000000000000000000000000000000000600052604160045260246000fd5b6000601f19601f8301169050919050565b7f4552433732313a20746f6b656e20616c7265616479206d696e74656400000000600082015250565b7f4552433732313a206d696e7420746f20746865207a65726f2061646472657373600082015250565b7f4465706c6f796572206d7573742070617920726f79616c74792066656520666f60008201527f72206561636820746f6b656e206c6973746564206f6e20746865206d61726b6560208201527f74706c6163650000000000000000000000000000000000000000000000000000604082015250565b7f5072696365206d7573742062652067726561746572207468616e203000000000600082015250565b62000ebd8162000bf0565b811462000ec957600080fd5b50565b62000ed78162000c24565b811462000ee357600080fd5b50565b6146a38062000ef66000396000f3fe6080604052600436106101cd5760003560e01c806370a08231116100f7578063b88d4fde11610095578063c87b56dd11610064578063c87b56dd14610661578063e219fc751461069e578063e985e9c5146106ba578063f2fde38b146106f7576101cd565b8063b88d4fde146105b7578063b8997a97146105e0578063c4e41b221461060b578063c668286214610636576101cd565b80638c210975116100d15780638c210975146104fb5780638da5cb5b1461053857806395d89b4114610563578063a22cb4651461058e576101cd565b806370a082311461047c578063715018a6146104b9578063767dd076146104d0576101cd565b806343bc16121161016f5780635afa3a721161013e5780635afa3a72146103cd5780635b3b136a146103e95780636352211e146104145780636c0360eb14610451576101cd565b806343bc16121461030e5780634e83be471461033957806351f28e14146103625780635a64ad95146103a2576101cd565b8063095ea7b3116101ab578063095ea7b31461027757806323b872dd146102a05780632d296bf1146102c957806342842e0e146102e5576101cd565b806301ffc9a7146101d257806306fdde031461020f578063081812fc1461023a575b600080fd5b3480156101de57600080fd5b506101f960048036038101906101f4919061320a565b610720565b60405161020691906138c4565b60405180910390f35b34801561021b57600080fd5b50610224610802565b60405161023191906138df565b60405180910390f35b34801561024657600080fd5b50610261600480360381019061025c91906132b0565b610894565b60405161026e9190613812565b60405180910390f35b34801561028357600080fd5b5061029e600480360381019061029991906131ce565b610919565b005b3480156102ac57600080fd5b506102c760048036038101906102c291906130c8565b610a31565b005b6102e360048036038101906102de91906132b0565b610a91565b005b3480156102f157600080fd5b5061030c600480360381019061030791906130c8565b610e95565b005b34801561031a57600080fd5b50610323610eb5565b6040516103309190613812565b60405180910390f35b34801561034557600080fd5b50610360600480360381019061035b91906132b0565b610edb565b005b34801561036e57600080fd5b50610389600480360381019061038491906132b0565b610f61565b6040516103999493929190613bdc565b60405180910390f35b3480156103ae57600080fd5b506103b7610fe1565b6040516103c49190613bc1565b60405180910390f35b6103e760048036038101906103e2919061325c565b610fe7565b005b3480156103f557600080fd5b506103fe6111ed565b60405161040b91906138a2565b60405180910390f35b34801561042057600080fd5b5061043b600480360381019061043691906132b0565b61144e565b6040516104489190613812565b60405180910390f35b34801561045d57600080fd5b50610466611500565b60405161047391906138df565b60405180910390f35b34801561048857600080fd5b506104a3600480360381019061049e9190613063565b61158e565b6040516104b09190613bc1565b60405180910390f35b3480156104c557600080fd5b506104ce611646565b005b3480156104dc57600080fd5b506104e56116ce565b6040516104f291906138a2565b60405180910390f35b34801561050757600080fd5b50610522600480360381019061051d91906132b0565b611992565b60405161052f91906138df565b60405180910390f35b34801561054457600080fd5b5061054d611a32565b60405161055a9190613812565b60405180910390f35b34801561056f57600080fd5b50610578611a5c565b60405161058591906138df565b60405180910390f35b34801561059a57600080fd5b506105b560048036038101906105b09190613192565b611aee565b005b3480156105c357600080fd5b506105de60048036038101906105d99190613117565b611b04565b005b3480156105ec57600080fd5b506105f5611b66565b6040516106029190613bc1565b60405180910390f35b34801561061757600080fd5b50610620611b6c565b60405161062d9190613bc1565b60405180910390f35b34801561064257600080fd5b5061064b611b76565b60405161065891906138df565b60405180910390f35b34801561066d57600080fd5b50610688600480360381019061068391906132b0565b611c04565b60405161069591906138df565b60405180910390f35b6106b860048036038101906106b391906132d9565b611cab565b005b3480156106c657600080fd5b506106e160048036038101906106dc919061308c565b611f5f565b6040516106ee91906138c4565b60405180910390f35b34801561070357600080fd5b5061071e60048036038101906107199190613063565b611ff3565b005b60007f80ac58cd000000000000000000000000000000000000000000000000000000007bffffffffffffffffffffffffffffffffffffffffffffffffffffffff1916827bffffffffffffffffffffffffffffffffffffffffffffffffffffffff191614806107eb57507f5b5e139f000000000000000000000000000000000000000000000000000000007bffffffffffffffffffffffffffffffffffffffffffffffffffffffff1916827bffffffffffffffffffffffffffffffffffffffffffffffffffffffff1916145b806107fb57506107fa826120eb565b5b9050919050565b60606000805461081190613ea7565b80601f016020809104026020016040519081016040528092919081815260200182805461083d90613ea7565b801561088a5780601f1061085f5761010080835404028352916020019161088a565b820191906000526020600020905b81548152906001019060200180831161086d57829003601f168201915b5050505050905090565b600061089f82612155565b6108de576040517f08c379a00000000000000000000000000000000000000000000000000000000081526004016108d590613b01565b60405180910390fd5b6004600083815260200190815260200160002060009054906101000a900473ffffffffffffffffffffffffffffffffffffffff169050919050565b60006109248261144e565b90508073ffffffffffffffffffffffffffffffffffffffff168373ffffffffffffffffffffffffffffffffffffffff161415610995576040517f08c379a000000000000000000000000000000000000000000000000000000000815260040161098c90613b81565b60405180910390fd5b8073ffffffffffffffffffffffffffffffffffffffff166109b46121c1565b73ffffffffffffffffffffffffffffffffffffffff1614806109e357506109e2816109dd6121c1565b611f5f565b5b610a22576040517f08c379a0000000000000000000000000000000000000000000000000000000008152600401610a1990613a61565b60405180910390fd5b610a2c83836121c9565b505050565b610a42610a3c6121c1565b82612282565b610a81576040517f08c379a0000000000000000000000000000000000000000000000000000000008152600401610a7890613ba1565b60405180910390fd5b610a8c838383612360565b505050565b6000600d8281548110610acd577f4e487b7100000000000000000000000000000000000000000000000000000000600052603260045260246000fd5b90600052602060002090600402016002015490506000600d8381548110610b1d577f4e487b7100000000000000000000000000000000000000000000000000000000600052603260045260246000fd5b906000526020600020906004020160010160009054906101000a900473ffffffffffffffffffffffffffffffffffffffff169050813414610b93576040517f08c379a0000000000000000000000000000000000000000000000000000000008152600401610b8a90613ae1565b60405180910390fd5b600d8381548110610bcd577f4e487b7100000000000000000000000000000000000000000000000000000000600052603260045260246000fd5b906000526020600020906004020160030160009054906101000a900473ffffffffffffffffffffffffffffffffffffffff1673ffffffffffffffffffffffffffffffffffffffff163373ffffffffffffffffffffffffffffffffffffffff161415610c6d576040517f08c379a0000000000000000000000000000000000000000000000000000000008152600401610c6490613b61565b60405180910390fd5b6000600d8481548110610ca9577f4e487b7100000000000000000000000000000000000000000000000000000000600052603260045260246000fd5b906000526020600020906004020160010160006101000a81548173ffffffffffffffffffffffffffffffffffffffff021916908373ffffffffffffffffffffffffffffffffffffffff160217905550610d03303385612360565b600960009054906101000a900473ffffffffffffffffffffffffffffffffffffffff1673ffffffffffffffffffffffffffffffffffffffff166108fc600a549081150290604051600060405180830381858888f19350505050158015610d6d573d6000803e3d6000fd5b508073ffffffffffffffffffffffffffffffffffffffff166108fc349081150290604051600060405180830381858888f19350505050158015610db4573d6000803e3d6000fd5b5033600d8481548110610df0577f4e487b7100000000000000000000000000000000000000000000000000000000600052603260045260246000fd5b906000526020600020906004020160030160006101000a81548173ffffffffffffffffffffffffffffffffffffffff021916908373ffffffffffffffffffffffffffffffffffffffff1602179055508073ffffffffffffffffffffffffffffffffffffffff16837fd356b8423ef89ccba8e4f1dbeccc60b41825fd97d432f2e6a6dbd11ae6ecec113385604051610e88929190613879565b60405180910390a3505050565b610eb083838360405180602001604052806000815250611b04565b505050565b600960009054906101000a900473ffffffffffffffffffffffffffffffffffffffff1681565b610ee36121c1565b73ffffffffffffffffffffffffffffffffffffffff16610f01611a32565b73ffffffffffffffffffffffffffffffffffffffff1614610f57576040517f08c379a0000000000000000000000000000000000000000000000000000000008152600401610f4e90613b21565b60405180910390fd5b80600a8190555050565b600d8181548110610f7157600080fd5b90600052602060002090600402016000915090508060000154908060010160009054906101000a900473ffffffffffffffffffffffffffffffffffffffff16908060020154908060030160009054906101000a900473ffffffffffffffffffffffffffffffffffffffff16905084565b600b5481565b600b5434101561102c576040517f08c379a000000000000000000000000000000000000000000000000000000000815260040161102390613a21565b60405180910390fd5b6000600c54905061103d33826125c7565b82600e60008381526020019081526020016000209080519060200190611064929190612e33565b50600d60405180608001604052808381526020013373ffffffffffffffffffffffffffffffffffffffff1681526020018481526020013373ffffffffffffffffffffffffffffffffffffffff1681525090806001815401808255809150506001900390600052602060002090600402016000909190919091506000820151816000015560208201518160010160006101000a81548173ffffffffffffffffffffffffffffffffffffffff021916908373ffffffffffffffffffffffffffffffffffffffff1602179055506040820151816002015560608201518160030160006101000a81548173ffffffffffffffffffffffffffffffffffffffff021916908373ffffffffffffffffffffffffffffffffffffffff1602179055505050600c600081548092919061119490613f0a565b91905055503373ffffffffffffffffffffffffffffffffffffffff16817f06becd955c918828f6e985541acbf49cc842c9e9bd569fffc7698e721ef13575856040516111e091906138df565b60405180910390a3505050565b606060006111fa3361158e565b905060008167ffffffffffffffff81111561123e577f4e487b7100000000000000000000000000000000000000000000000000000000600052604160045260246000fd5b60405190808252806020026020018201604052801561127757816020015b611264612eb9565b81526020019060019003908161125c5790505b509050600080600090505b600d80549050811015611444573373ffffffffffffffffffffffffffffffffffffffff166112af8261144e565b73ffffffffffffffffffffffffffffffffffffffff16141561143157600d8181548110611305577f4e487b7100000000000000000000000000000000000000000000000000000000600052603260045260246000fd5b9060005260206000209060040201604051806080016040529081600082015481526020016001820160009054906101000a900473ffffffffffffffffffffffffffffffffffffffff1673ffffffffffffffffffffffffffffffffffffffff1673ffffffffffffffffffffffffffffffffffffffff168152602001600282015481526020016003820160009054906101000a900473ffffffffffffffffffffffffffffffffffffffff1673ffffffffffffffffffffffffffffffffffffffff1673ffffffffffffffffffffffffffffffffffffffff1681525050838381518110611417577f4e487b7100000000000000000000000000000000000000000000000000000000600052603260045260246000fd5b6020026020010181905250818061142d90613f0a565b9250505b808061143c90613f0a565b915050611282565b5081935050505090565b6000806002600084815260200190815260200160002060009054906101000a900473ffffffffffffffffffffffffffffffffffffffff169050600073ffffffffffffffffffffffffffffffffffffffff168173ffffffffffffffffffffffffffffffffffffffff1614156114f7576040517f08c379a00000000000000000000000000000000000000000000000000000000081526004016114ee90613aa1565b60405180910390fd5b80915050919050565b6007805461150d90613ea7565b80601f016020809104026020016040519081016040528092919081815260200182805461153990613ea7565b80156115865780601f1061155b57610100808354040283529160200191611586565b820191906000526020600020905b81548152906001019060200180831161156957829003601f168201915b505050505081565b60008073ffffffffffffffffffffffffffffffffffffffff168273ffffffffffffffffffffffffffffffffffffffff1614156115ff576040517f08c379a00000000000000000000000000000000000000000000000000000000081526004016115f690613a81565b60405180910390fd5b600360008373ffffffffffffffffffffffffffffffffffffffff1673ffffffffffffffffffffffffffffffffffffffff168152602001908152602001600020549050919050565b61164e6121c1565b73ffffffffffffffffffffffffffffffffffffffff1661166c611a32565b73ffffffffffffffffffffffffffffffffffffffff16146116c2576040517f08c379a00000000000000000000000000000000000000000000000000000000081526004016116b990613b21565b60405180910390fd5b6116cc60006127a1565b565b606060006116db3061158e565b905060008167ffffffffffffffff81111561171f577f4e487b7100000000000000000000000000000000000000000000000000000000600052604160045260246000fd5b60405190808252806020026020018201604052801561175857816020015b611745612eb9565b81526020019060019003908161173d5790505b509050600080600090505b600d8054905081101561198857600073ffffffffffffffffffffffffffffffffffffffff16600d82815481106117c2577f4e487b7100000000000000000000000000000000000000000000000000000000600052603260045260246000fd5b906000526020600020906004020160010160009054906101000a900473ffffffffffffffffffffffffffffffffffffffff1673ffffffffffffffffffffffffffffffffffffffff161461197557600d8181548110611849577f4e487b7100000000000000000000000000000000000000000000000000000000600052603260045260246000fd5b9060005260206000209060040201604051806080016040529081600082015481526020016001820160009054906101000a900473ffffffffffffffffffffffffffffffffffffffff1673ffffffffffffffffffffffffffffffffffffffff1673ffffffffffffffffffffffffffffffffffffffff168152602001600282015481526020016003820160009054906101000a900473ffffffffffffffffffffffffffffffffffffffff1673ffffffffffffffffffffffffffffffffffffffff1673ffffffffffffffffffffffffffffffffffffffff168152505083838151811061195b577f4e487b7100000000000000000000000000000000000000000000000000000000600052603260045260246000fd5b6020026020010181905250818061197190613f0a565b9250505b808061198090613f0a565b915050611763565b5081935050505090565b600e60205280600052604060002060009150905080546119b190613ea7565b80601f01602080910402602001604051908101604052809291908181526020018280546119dd90613ea7565b8015611a2a5780601f106119ff57610100808354040283529160200191611a2a565b820191906000526020600020905b815481529060010190602001808311611a0d57829003601f168201915b505050505081565b6000600660009054906101000a900473ffffffffffffffffffffffffffffffffffffffff16905090565b606060018054611a6b90613ea7565b80601f0160208091040260200160405190810160405280929190818152602001828054611a9790613ea7565b8015611ae45780601f10611ab957610100808354040283529160200191611ae4565b820191906000526020600020905b815481529060010190602001808311611ac757829003601f168201915b5050505050905090565b611b00611af96121c1565b8383612867565b5050565b611b15611b0f6121c1565b83612282565b611b54576040517f08c379a0000000000000000000000000000000000000000000000000000000008152600401611b4b90613ba1565b60405180910390fd5b611b60848484846129d4565b50505050565b600a5481565b6000600c54905090565b60088054611b8390613ea7565b80601f0160208091040260200160405190810160405280929190818152602001828054611baf90613ea7565b8015611bfc5780601f10611bd157610100808354040283529160200191611bfc565b820191906000526020600020905b815481529060010190602001808311611bdf57829003601f168201915b505050505081565b6060611c0f82612155565b611c4e576040517f08c379a0000000000000000000000000000000000000000000000000000000008152600401611c4590613b41565b60405180910390fd5b6000611c58612a30565b90506000815111611c785760405180602001604052806000815250611ca3565b80611c8284612ac2565b604051602001611c939291906137ee565b6040516020818303038152906040525b915050919050565b60006002600d8481548110611ce9577f4e487b7100000000000000000000000000000000000000000000000000000000600052603260045260246000fd5b906000526020600020906004020160020154611d059190613d7a565b600d8481548110611d3f577f4e487b7100000000000000000000000000000000000000000000000000000000600052603260045260246000fd5b906000526020600020906004020160020154611d5b9190613d24565b9050600a543414611da1576040517f08c379a0000000000000000000000000000000000000000000000000000000008152600401611d98906139a1565b60405180910390fd5b60008211611de4576040517f08c379a0000000000000000000000000000000000000000000000000000000008152600401611ddb90613901565b60405180910390fd5b808210611e26576040517f08c379a0000000000000000000000000000000000000000000000000000000008152600401611e1d90613a01565b60405180910390fd5b81600d8481548110611e61577f4e487b7100000000000000000000000000000000000000000000000000000000600052603260045260246000fd5b90600052602060002090600402016002018190555033600d8481548110611eb1577f4e487b7100000000000000000000000000000000000000000000000000000000600052603260045260246000fd5b906000526020600020906004020160010160006101000a81548173ffffffffffffffffffffffffffffffffffffffff021916908373ffffffffffffffffffffffffffffffffffffffff160217905550611f0b333085612360565b3373ffffffffffffffffffffffffffffffffffffffff16837fb2ba12d2566848b13548a3741edb565b69d3cbce7796959cd67431610207eb1384604051611f529190613bc1565b60405180910390a3505050565b6000600560008473ffffffffffffffffffffffffffffffffffffffff1673ffffffffffffffffffffffffffffffffffffffff16815260200190815260200160002060008373ffffffffffffffffffffffffffffffffffffffff1673ffffffffffffffffffffffffffffffffffffffff16815260200190815260200160002060009054906101000a900460ff16905092915050565b611ffb6121c1565b73ffffffffffffffffffffffffffffffffffffffff16612019611a32565b73ffffffffffffffffffffffffffffffffffffffff161461206f576040517f08c379a000000000000000000000000000000000000000000000000000000000815260040161206690613b21565b60405180910390fd5b600073ffffffffffffffffffffffffffffffffffffffff168173ffffffffffffffffffffffffffffffffffffffff1614156120df576040517f08c379a00000000000000000000000000000000000000000000000000000000081526004016120d690613941565b60405180910390fd5b6120e8816127a1565b50565b60007f01ffc9a7000000000000000000000000000000000000000000000000000000007bffffffffffffffffffffffffffffffffffffffffffffffffffffffff1916827bffffffffffffffffffffffffffffffffffffffffffffffffffffffff1916149050919050565b60008073ffffffffffffffffffffffffffffffffffffffff166002600084815260200190815260200160002060009054906101000a900473ffffffffffffffffffffffffffffffffffffffff1673ffffffffffffffffffffffffffffffffffffffff1614159050919050565b600033905090565b816004600083815260200190815260200160002060006101000a81548173ffffffffffffffffffffffffffffffffffffffff021916908373ffffffffffffffffffffffffffffffffffffffff160217905550808273ffffffffffffffffffffffffffffffffffffffff1661223c8361144e565b73ffffffffffffffffffffffffffffffffffffffff167f8c5be1e5ebec7d5bd14f71427d1e84f3dd0314c0f7b2291e5b200ac8c7c3b92560405160405180910390a45050565b600061228d82612155565b6122cc576040517f08c379a00000000000000000000000000000000000000000000000000000000081526004016122c390613a41565b60405180910390fd5b60006122d78361144e565b90508073ffffffffffffffffffffffffffffffffffffffff168473ffffffffffffffffffffffffffffffffffffffff16148061234657508373ffffffffffffffffffffffffffffffffffffffff1661232e84610894565b73ffffffffffffffffffffffffffffffffffffffff16145b8061235757506123568185611f5f565b5b91505092915050565b8273ffffffffffffffffffffffffffffffffffffffff166123808261144e565b73ffffffffffffffffffffffffffffffffffffffff16146123d6576040517f08c379a00000000000000000000000000000000000000000000000000000000081526004016123cd90613961565b60405180910390fd5b600073ffffffffffffffffffffffffffffffffffffffff168273ffffffffffffffffffffffffffffffffffffffff161415612446576040517f08c379a000000000000000000000000000000000000000000000000000000000815260040161243d906139c1565b60405180910390fd5b612451838383612c6f565b61245c6000826121c9565b6001600360008573ffffffffffffffffffffffffffffffffffffffff1673ffffffffffffffffffffffffffffffffffffffff16815260200190815260200160002060008282546124ac9190613dab565b925050819055506001600360008473ffffffffffffffffffffffffffffffffffffffff1673ffffffffffffffffffffffffffffffffffffffff16815260200190815260200160002060008282546125039190613d24565b92505081905550816002600083815260200190815260200160002060006101000a81548173ffffffffffffffffffffffffffffffffffffffff021916908373ffffffffffffffffffffffffffffffffffffffff160217905550808273ffffffffffffffffffffffffffffffffffffffff168473ffffffffffffffffffffffffffffffffffffffff167fddf252ad1be2c89b69c2b068fc378daa952ba7f163c4a11628f55a4df523b3ef60405160405180910390a46125c2838383612c74565b505050565b600073ffffffffffffffffffffffffffffffffffffffff168273ffffffffffffffffffffffffffffffffffffffff161415612637576040517f08c379a000000000000000000000000000000000000000000000000000000000815260040161262e90613ac1565b60405180910390fd5b61264081612155565b15612680576040517f08c379a000000000000000000000000000000000000000000000000000000000815260040161267790613981565b60405180910390fd5b61268c60008383612c6f565b6001600360008473ffffffffffffffffffffffffffffffffffffffff1673ffffffffffffffffffffffffffffffffffffffff16815260200190815260200160002060008282546126dc9190613d24565b92505081905550816002600083815260200190815260200160002060006101000a81548173ffffffffffffffffffffffffffffffffffffffff021916908373ffffffffffffffffffffffffffffffffffffffff160217905550808273ffffffffffffffffffffffffffffffffffffffff16600073ffffffffffffffffffffffffffffffffffffffff167fddf252ad1be2c89b69c2b068fc378daa952ba7f163c4a11628f55a4df523b3ef60405160405180910390a461279d60008383612c74565b5050565b6000600660009054906101000a900473ffffffffffffffffffffffffffffffffffffffff16905081600660006101000a81548173ffffffffffffffffffffffffffffffffffffffff021916908373ffffffffffffffffffffffffffffffffffffffff1602179055508173ffffffffffffffffffffffffffffffffffffffff168173ffffffffffffffffffffffffffffffffffffffff167f8be0079c531659141344cd1fd0a4f28419497f9722a3daafe3b4186f6b6457e060405160405180910390a35050565b8173ffffffffffffffffffffffffffffffffffffffff168373ffffffffffffffffffffffffffffffffffffffff1614156128d6576040517f08c379a00000000000000000000000000000000000000000000000000000000081526004016128cd906139e1565b60405180910390fd5b80600560008573ffffffffffffffffffffffffffffffffffffffff1673ffffffffffffffffffffffffffffffffffffffff16815260200190815260200160002060008473ffffffffffffffffffffffffffffffffffffffff1673ffffffffffffffffffffffffffffffffffffffff16815260200190815260200160002060006101000a81548160ff0219169083151502179055508173ffffffffffffffffffffffffffffffffffffffff168373ffffffffffffffffffffffffffffffffffffffff167f17307eab39ab6107e8899845ad3d59bd9653f200f220920489ca2b5937696c31836040516129c791906138c4565b60405180910390a3505050565b6129df848484612360565b6129eb84848484612c79565b612a2a576040517f08c379a0000000000000000000000000000000000000000000000000000000008152600401612a2190613921565b60405180910390fd5b50505050565b606060078054612a3f90613ea7565b80601f0160208091040260200160405190810160405280929190818152602001828054612a6b90613ea7565b8015612ab85780601f10612a8d57610100808354040283529160200191612ab8565b820191906000526020600020905b815481529060010190602001808311612a9b57829003601f168201915b5050505050905090565b60606000821415612b0a576040518060400160405280600181526020017f30000000000000000000000000000000000000000000000000000000000000008152509050612c6a565b600082905060005b60008214612b3c578080612b2590613f0a565b915050600a82612b359190613d7a565b9150612b12565b60008167ffffffffffffffff811115612b7e577f4e487b7100000000000000000000000000000000000000000000000000000000600052604160045260246000fd5b6040519080825280601f01601f191660200182016040528015612bb05781602001600182028036833780820191505090505b5090505b60008514612c6357600182612bc99190613dab565b9150600a85612bd89190613f53565b6030612be49190613d24565b60f81b818381518110612c20577f4e487b7100000000000000000000000000000000000000000000000000000000600052603260045260246000fd5b60200101907effffffffffffffffffffffffffffffffffffffffffffffffffffffffffffff1916908160001a905350600a85612c5c9190613d7a565b9450612bb4565b8093505050505b919050565b505050565b505050565b6000612c9a8473ffffffffffffffffffffffffffffffffffffffff16612e10565b15612e03578373ffffffffffffffffffffffffffffffffffffffff1663150b7a02612cc36121c1565b8786866040518563ffffffff1660e01b8152600401612ce5949392919061382d565b602060405180830381600087803b158015612cff57600080fd5b505af1925050508015612d3057506040513d601f19601f82011682018060405250810190612d2d9190613233565b60015b612db3573d8060008114612d60576040519150601f19603f3d011682016040523d82523d6000602084013e612d65565b606091505b50600081511415612dab576040517f08c379a0000000000000000000000000000000000000000000000000000000008152600401612da290613921565b60405180910390fd5b805181602001fd5b63150b7a0260e01b7bffffffffffffffffffffffffffffffffffffffffffffffffffffffff1916817bffffffffffffffffffffffffffffffffffffffffffffffffffffffff191614915050612e08565b600190505b949350505050565b6000808273ffffffffffffffffffffffffffffffffffffffff163b119050919050565b828054612e3f90613ea7565b90600052602060002090601f016020900481019282612e615760008555612ea8565b82601f10612e7a57805160ff1916838001178555612ea8565b82800160010185558215612ea8579182015b82811115612ea7578251825591602001919060010190612e8c565b5b509050612eb59190612f0d565b5090565b604051806080016040528060008152602001600073ffffffffffffffffffffffffffffffffffffffff16815260200160008152602001600073ffffffffffffffffffffffffffffffffffffffff1681525090565b5b80821115612f26576000816000905550600101612f0e565b5090565b6000612f3d612f3884613c46565b613c21565b905082815260208101848484011115612f5557600080fd5b612f60848285613e65565b509392505050565b6000612f7b612f7684613c77565b613c21565b905082815260208101848484011115612f9357600080fd5b612f9e848285613e65565b509392505050565b600081359050612fb581614611565b92915050565b600081359050612fca81614628565b92915050565b600081359050612fdf8161463f565b92915050565b600081519050612ff48161463f565b92915050565b600082601f83011261300b57600080fd5b813561301b848260208601612f2a565b91505092915050565b600082601f83011261303557600080fd5b8135613045848260208601612f68565b91505092915050565b60008135905061305d81614656565b92915050565b60006020828403121561307557600080fd5b600061308384828501612fa6565b91505092915050565b6000806040838503121561309f57600080fd5b60006130ad85828601612fa6565b92505060206130be85828601612fa6565b9150509250929050565b6000806000606084860312156130dd57600080fd5b60006130eb86828701612fa6565b93505060206130fc86828701612fa6565b925050604061310d8682870161304e565b9150509250925092565b6000806000806080858703121561312d57600080fd5b600061313b87828801612fa6565b945050602061314c87828801612fa6565b935050604061315d8782880161304e565b925050606085013567ffffffffffffffff81111561317a57600080fd5b61318687828801612ffa565b91505092959194509250565b600080604083850312156131a557600080fd5b60006131b385828601612fa6565b92505060206131c485828601612fbb565b9150509250929050565b600080604083850312156131e157600080fd5b60006131ef85828601612fa6565b92505060206132008582860161304e565b9150509250929050565b60006020828403121561321c57600080fd5b600061322a84828501612fd0565b91505092915050565b60006020828403121561324557600080fd5b600061325384828501612fe5565b91505092915050565b6000806040838503121561326f57600080fd5b600083013567ffffffffffffffff81111561328957600080fd5b61329585828601613024565b92505060206132a68582860161304e565b9150509250929050565b6000602082840312156132c257600080fd5b60006132d08482850161304e565b91505092915050565b600080604083850312156132ec57600080fd5b60006132fa8582860161304e565b925050602061330b8582860161304e565b9150509250929050565b6000613321838361377b565b60808301905092915050565b61333681613df1565b82525050565b61334581613df1565b82525050565b61335481613ddf565b82525050565b61336381613ddf565b82525050565b600061337482613cb8565b61337e8185613ce6565b935061338983613ca8565b8060005b838110156133ba5781516133a18882613315565b97506133ac83613cd9565b92505060018101905061338d565b5085935050505092915050565b6133d081613e03565b82525050565b60006133e182613cc3565b6133eb8185613cf7565b93506133fb818560208601613e74565b61340481614040565b840191505092915050565b600061341a82613cce565b6134248185613d08565b9350613434818560208601613e74565b61343d81614040565b840191505092915050565b600061345382613cce565b61345d8185613d19565b935061346d818560208601613e74565b80840191505092915050565b6000613486601f83613d08565b915061349182614051565b602082019050919050565b60006134a9603283613d08565b91506134b48261407a565b604082019050919050565b60006134cc602683613d08565b91506134d7826140c9565b604082019050919050565b60006134ef602583613d08565b91506134fa82614118565b604082019050919050565b6000613512601c83613d08565b915061351d82614167565b602082019050919050565b6000613535601083613d08565b915061354082614190565b602082019050919050565b6000613558602483613d08565b9150613563826141b9565b604082019050919050565b600061357b601983613d08565b915061358682614208565b602082019050919050565b600061359e603583613d08565b91506135a982614231565b604082019050919050565b60006135c1601e83613d08565b91506135cc82614280565b602082019050919050565b60006135e4602c83613d08565b91506135ef826142a9565b604082019050919050565b6000613607603883613d08565b9150613612826142f8565b604082019050919050565b600061362a602a83613d08565b915061363582614347565b604082019050919050565b600061364d602983613d08565b915061365882614396565b604082019050919050565b6000613670602083613d08565b915061367b826143e5565b602082019050919050565b6000613693603e83613d08565b915061369e8261440e565b604082019050919050565b60006136b6602c83613d08565b91506136c18261445d565b604082019050919050565b60006136d9602083613d08565b91506136e4826144ac565b602082019050919050565b60006136fc602f83613d08565b9150613707826144d5565b604082019050919050565b600061371f603383613d08565b915061372a82614524565b604082019050919050565b6000613742602183613d08565b915061374d82614573565b604082019050919050565b6000613765603183613d08565b9150613770826145c2565b604082019050919050565b60808201600082015161379160008501826137d0565b5060208201516137a4602085018261332d565b5060408201516137b760408501826137d0565b5060608201516137ca606085018261334b565b50505050565b6137d981613e5b565b82525050565b6137e881613e5b565b82525050565b60006137fa8285613448565b91506138068284613448565b91508190509392505050565b6000602082019050613827600083018461335a565b92915050565b6000608082019050613842600083018761335a565b61384f602083018661335a565b61385c60408301856137df565b818103606083015261386e81846133d6565b905095945050505050565b600060408201905061388e600083018561335a565b61389b60208301846137df565b9392505050565b600060208201905081810360008301526138bc8184613369565b905092915050565b60006020820190506138d960008301846133c7565b92915050565b600060208201905081810360008301526138f9818461340f565b905092915050565b6000602082019050818103600083015261391a81613479565b9050919050565b6000602082019050818103600083015261393a8161349c565b9050919050565b6000602082019050818103600083015261395a816134bf565b9050919050565b6000602082019050818103600083015261397a816134e2565b9050919050565b6000602082019050818103600083015261399a81613505565b9050919050565b600060208201905081810360008301526139ba81613528565b9050919050565b600060208201905081810360008301526139da8161354b565b9050919050565b600060208201905081810360008301526139fa8161356e565b9050919050565b60006020820190508181036000830152613a1a81613591565b9050919050565b60006020820190508181036000830152613a3a816135b4565b9050919050565b60006020820190508181036000830152613a5a816135d7565b9050919050565b60006020820190508181036000830152613a7a816135fa565b9050919050565b60006020820190508181036000830152613a9a8161361d565b9050919050565b60006020820190508181036000830152613aba81613640565b9050919050565b60006020820190508181036000830152613ada81613663565b9050919050565b60006020820190508181036000830152613afa81613686565b9050919050565b60006020820190508181036000830152613b1a816136a9565b9050919050565b60006020820190508181036000830152613b3a816136cc565b9050919050565b60006020820190508181036000830152613b5a816136ef565b9050919050565b60006020820190508181036000830152613b7a81613712565b9050919050565b60006020820190508181036000830152613b9a81613735565b9050919050565b60006020820190508181036000830152613bba81613758565b9050919050565b6000602082019050613bd660008301846137df565b92915050565b6000608082019050613bf160008301876137df565b613bfe602083018661333c565b613c0b60408301856137df565b613c18606083018461335a565b95945050505050565b6000613c2b613c3c565b9050613c378282613ed9565b919050565b6000604051905090565b600067ffffffffffffffff821115613c6157613c60614011565b5b613c6a82614040565b9050602081019050919050565b600067ffffffffffffffff821115613c9257613c91614011565b5b613c9b82614040565b9050602081019050919050565b6000819050602082019050919050565b600081519050919050565b600081519050919050565b600081519050919050565b6000602082019050919050565b600082825260208201905092915050565b600082825260208201905092915050565b600082825260208201905092915050565b600081905092915050565b6000613d2f82613e5b565b9150613d3a83613e5b565b9250827fffffffffffffffffffffffffffffffffffffffffffffffffffffffffffffffff03821115613d6f57613d6e613f84565b5b828201905092915050565b6000613d8582613e5b565b9150613d9083613e5b565b925082613da057613d9f613fb3565b5b828204905092915050565b6000613db682613e5b565b9150613dc183613e5b565b925082821015613dd457613dd3613f84565b5b828203905092915050565b6000613dea82613e3b565b9050919050565b6000613dfc82613e3b565b9050919050565b60008115159050919050565b60007fffffffff0000000000000000000000000000000000000000000000000000000082169050919050565b600073ffffffffffffffffffffffffffffffffffffffff82169050919050565b6000819050919050565b82818337600083830152505050565b60005b83811015613e92578082015181840152602081019050613e77565b83811115613ea1576000848401525b50505050565b60006002820490506001821680613ebf57607f821691505b60208210811415613ed357613ed2613fe2565b5b50919050565b613ee282614040565b810181811067ffffffffffffffff82111715613f0157613f00614011565b5b80604052505050565b6000613f1582613e5b565b91507fffffffffffffffffffffffffffffffffffffffffffffffffffffffffffffffff821415613f4857613f47613f84565b5b600182019050919050565b6000613f5e82613e5b565b9150613f6983613e5b565b925082613f7957613f78613fb3565b5b828206905092915050565b7f4e487b7100000000000000000000000000000000000000000000000000000000600052601160045260246000fd5b7f4e487b7100000000000000000000000000000000000000000000000000000000600052601260045260246000fd5b7f4e487b7100000000000000000000000000000000000000000000000000000000600052602260045260246000fd5b7f4e487b7100000000000000000000000000000000000000000000000000000000600052604160045260246000fd5b6000601f19601f8301169050919050565b7f5072696365206d7573742062652067726561746572207468616e207a65726f00600082015250565b7f4552433732313a207472616e7366657220746f206e6f6e20455243373231526560008201527f63656976657220696d706c656d656e7465720000000000000000000000000000602082015250565b7f4f776e61626c653a206e6577206f776e657220697320746865207a65726f206160008201527f6464726573730000000000000000000000000000000000000000000000000000602082015250565b7f4552433732313a207472616e736665722066726f6d20696e636f72726563742060008201527f6f776e6572000000000000000000000000000000000000000000000000000000602082015250565b7f4552433732313a20746f6b656e20616c7265616479206d696e74656400000000600082015250565b7f4d7573742070617920726f79616c747900000000000000000000000000000000600082015250565b7f4552433732313a207472616e7366657220746f20746865207a65726f2061646460008201527f7265737300000000000000000000000000000000000000000000000000000000602082015250565b7f4552433732313a20617070726f766520746f2063616c6c657200000000000000600082015250565b7f5072696365206d757374206265206c6573736572207468616e20312e3520746960008201527f6d6573206f66206f726967696e616c2070726963650000000000000000000000602082015250565b7f496e73756666696369656e742066756e647320666f72206d696e74696e670000600082015250565b7f4552433732313a206f70657261746f7220717565727920666f72206e6f6e657860008201527f697374656e7420746f6b656e0000000000000000000000000000000000000000602082015250565b7f4552433732313a20617070726f76652063616c6c6572206973206e6f74206f7760008201527f6e6572206e6f7220617070726f76656420666f7220616c6c0000000000000000602082015250565b7f4552433732313a2062616c616e636520717565727920666f7220746865207a6560008201527f726f206164647265737300000000000000000000000000000000000000000000602082015250565b7f4552433732313a206f776e657220717565727920666f72206e6f6e657869737460008201527f656e7420746f6b656e0000000000000000000000000000000000000000000000602082015250565b7f4552433732313a206d696e7420746f20746865207a65726f2061646472657373600082015250565b7f506c656173652073656e64207468652061736b696e6720707269636520696e2060008201527f6f7264657220746f20636f6d706c657465207468652070757263686173650000602082015250565b7f4552433732313a20617070726f76656420717565727920666f72206e6f6e657860008201527f697374656e7420746f6b656e0000000000000000000000000000000000000000602082015250565b7f4f776e61626c653a2063616c6c6572206973206e6f7420746865206f776e6572600082015250565b7f4552433732314d657461646174613a2055524920717565727920666f72206e6f60008201527f6e6578697374656e7420746f6b656e0000000000000000000000000000000000602082015250565b7f54686520706572736f6e2077686f2072656c697374656420746865206974656d60008201527f2063616e6e6f7420627579206974206261636b00000000000000000000000000602082015250565b7f4552433732313a20617070726f76616c20746f2063757272656e74206f776e6560008201527f7200000000000000000000000000000000000000000000000000000000000000602082015250565b7f4552433732313a207472616e736665722063616c6c6572206973206e6f74206f60008201527f776e6572206e6f7220617070726f766564000000000000000000000000000000602082015250565b61461a81613ddf565b811461462557600080fd5b50565b61463181613e03565b811461463c57600080fd5b50565b61464881613e0f565b811461465357600080fd5b50565b61465f81613e5b565b811461466a57600080fd5b5056fea2646970667358221220b42e991ad0c8b545368b15144a3224028d24f30cd23e3a7ead428279880a229c64736f6c6343000804003368747470733a2f2f626c61636b2d63686561702d626173696c69736b2d3934302e6d7970696e6174612e636c6f75642f697066732f516d644858596e47436b526631766743554557784d7a324863425a4b7a745a345a506d67354a6359433476766d392f",
  "linkReferences": {},
  "deployedLinkReferences": {}
}